:020000040800F2
:1000000000000220190B00085109000857090008D8
:100010005D09000863090008690900080000000084
:100020000000000000000000000000006F09000850
:100030007D090008000000008B09000899090008EC
:10004000690B0008690B0008690B0008690B0008C0
:10005000690B0008690B0008690B0008690B0008B0
:10006000690B0008690B0008690B0008690B0008A0
:10007000690B0008690B0008690B0008690B000890
:10008000690B0008690B0008690B000800000000FC
:10009000000000000000000000000000690B0008E4
:1000A000690B0008690B0008690B0008690B000860
:1000B000690B0008690B0008690B0008690B000850
:1000C000690B0008690B0008690B0008690B000840
:1000D000690B0008690B0008690B000800000000AC
:1000E000690B0008690B0008690B0008000000009C
:1000F000000000000000000000000000690B000884
:1001000000000000690B0008690B0008690B00087B
:1001100000000000000000000000000000000000DF
:10012000690B0008690B0008690B0008690B0008DF
:10013000690B000800000000000000000000000043
:10014000000000000000000000000000690B000833
:10015000690B0008690B0008690B0008690B0008AF
:10016000690B0008690B0008000000000000000097
:10017000000000000000000000000000000000007F
:1001800000000000690B00080000000000000000F3
:08019000690B0008690B00086F
:1001A00010B5054C237833B9044B13B10448AFF3B1
:1001B00000800123237010BD7000002000000000AB
:1001C000707A000808B5034B1BB103490348AFF32D
:1001D000008008BD0000000074000020707A000854
:1001E00001F0FF01102A2BDB10F0070F08D010F8E8
:1001F000013B013A8B422DD010F0070F42B3F6D1EC
:10020000F0B441EA012141EA014122F007047FF004
:1002100000070023F0E80256083C85EA010586EA5B
:10022000010685FA47F5A3FA87F586FA47F6A5FA97
:1002300087F68EB9EED1F0BC01F0FF0102F00702A3
:1002400032B110F8013B013A83EA010313B1F8D14E
:100250000020704701387047002D06BF354603382F
:10026000073815F0010F07D1013015F4807F02BF68
:10027000013015F4C03F0130F0BC0138704700BFB9
:1002800053B94AB9002908BF00281CBF4FF0FF31FD
:100290004FF0FF3000F072B9ADF1080C6DE904CEFB
:1002A00000F006F8DDF804E0DDE9022304B0704751
:1002B0002DE9F047089E04468846002B4BD18A4220
:1002C000154667D9B2FA82F24AB1C2F1200701FAA3
:1002D00002F320FA07F7954047EA030894404FEAF3
:1002E000154E230CB8FBFEF71FFA85FC0EFB178892
:1002F00043EA084307FB0CF1994209D9EB1807F1CF
:10030000FF3080F01B81994240F21881023F2B445C
:100310005B1AA4B2B3FBFEF00EFB103344EA0344B5
:1003200000FB0CFCA44509D92C1900F1FF3380F027
:100330000781A44540F2048102382C4440EA07407A
:10034000A4EB0C0400271EB1D4400023C6E90043EF
:100350003946BDE8F0878B4209D9002E00F0EB80CA
:100360000027C6E9000138463946BDE8F087B3FAF0
:1003700083F7002F47D18B4202D3824200F2FA80EA
:10038000841A61EB030301209846002EE0D0C6E9F1
:100390000048DDE702B9FFDEB2FA82F2002A40F03F
:1003A0008F80491B4FEA154E1FFA85F80127B1FBD4
:1003B000FEFC230C0EFB1C1143EA014308FB0CF16D
:1003C000994207D9EB180CF1FF3002D2994200F2A2
:1003D000CD808446591AA3B2B1FBFEF00EFB101477
:1003E00043EA044408FB00F8A04507D92C1900F1A2
:1003F000FF3302D2A04500F2B6801846A4EB0804F1
:1004000040EA0C409FE7C7F1200CBB4022FA0CFEEB
:100410004EEA030E01FA07F420FA0CF521FA0CF368
:100420004FEA1E482543B3FBF8F92C0C08FB19339F
:100430001FFA8EFA44EA034309FB0AF49C4202FACB
:1004400007F200FA07F10BD91EEB030309F1FF30A5
:1004500080F087809C4240F28480A9F102097344B5
:100460001B1BADB2B3FBF8F008FB103345EA0344A5
:1004700000FB0AFAA24508D91EEB040400F1FF3381
:100480006BD2A24569D90238744440EA0940A0FB06
:100490000289A4EB0A044C45C2464B4654D351D0C2
:1004A000002E69D0B1EB0A0564EB030404FA0CFCDE
:1004B000FD40FC404CEA0505C6E90054002747E72B
:1004C000C2F1200320FA03F7954001FA02F021FA65
:1004D00003F34FEA154E3843010CB3FBFEF71FFA46
:1004E00085F80EFB173341EA034107FB08F38B4203
:1004F00004FA02F407D9691807F1FF3C2FD28B42A6
:100500002DD9023F2944CB1A81B2B3FBFEF00EFB7A
:10051000103341EA034100FB08F38B4207D9691805
:1005200000F1FF3C17D28B4215D902382944C91A71
:1005300040EA07473BE73746304609E70746E7E624
:100540001846FBE64145ABD2B8EB020A69EB0E0256
:1005500001381346A4E76046E9E7184695E7674681
:10056000D1E781467CE702382C4447E7ACF1020C26
:100570002B442FE7384608E73746E9E6704700BFC7
:1005800080B483B000AF78604FF06043D3F8803E12
:1005900003F00103002B13D04FF06043D3F8003E6B
:1005A00003F00103002B0BD000E000BF4FF06043CD
:1005B0001B68002BF9D04FF060437A68D2B21A70F2
:1005C0007B6818460C37BD465DF8047B7047000019
:1005D00080B582B000AF00F0C9FA00F01DF800F05D
:1005E000A3F800F081F803F0E7FB0023FB710BE0B8
:1005F0004FF40051074801F00EF84FF4FA7000F084
:100600005BFBFB790133FB71FB79032BF0D906F01F
:100610004DFAFEE70008024080B594B000AF07F144
:10062000200330220021184606F0D2FA07F10C030D
:1006300000221A605A609A60DA601A610023BB6077
:10064000274B1B6C264A43F080531364244B1B6CCE
:1006500003F08053BB60BB6800237B60214B1B68A9
:10066000204A43F4404313601E4B1B6803F440438D
:100670007B607B6801233B624FF480337B62022303
:10068000BB634FF48003FB630C233B6460237B64F8
:100690000223BB640523FB6407F12003184600F026
:1006A000D5FF0346002B01D000F0ABF80F23FB6011
:1006B00002233B6100237B614FF48053BB61002325
:1006C000FB6107F10C030321184601F02FFA0346E2
:1006D000002B01D000F095F800BF5037BD4680BD1B
:1006E000003802400070004080B400AF0C4B0D4A4F
:1006F0001A600B4B00225A60094B00229A60084B8B
:100700000022DA60064B00221A61054B00225A6172
:10071000034B0A229A6100BFBD465DF8047B704717
:10072000CC000020002C014080B58AB000AF07F15A
:10073000140300221A605A609A60DA601A6100237A
:100740003B61274B1B6B264A43F004031363244B86
:100750001B6B03F004033B613B690023FB60204BF0
:100760001B6B1F4A43F0800313631D4B1B6B03F08D
:100770008003FB60FB680023BB60194B1B6B184AAE
:1007800043F001031363164B1B6B03F00103BB60C3
:10079000BB6800237B60124B1B6B114A43F00203C2
:1007A00013630F4B1B6B03F002037B607B6801221A
:1007B0004FF400510B4800F015FF4FF400537B61DC
:1007C0000123BB610023FB6100233B6207F114039B
:1007D0001946044800F084FD00BF2837BD4680BD9F
:1007E000003802400008024080B582B000AF786057
:1007F0007B681846FFF7C4FE7B6818460837BD467D
:1008000080BD80B400AF72B6FEE7000080B483B054
:1008100000AF00237B60104B5B6C0F4A43F48043B6
:1008200053640D4B5B6C03F480437B607B68002357
:100830003B60094B1B6C084A43F080531364064B22
:100840001B6C03F080533B603B6800BF0C37BD4618
:100850005DF8047B704700BF0038024080B58AB065
:1008600000AF786007F1140300221A605A609A60A2
:10087000DA601A617B681B68314A93425BD10023BE
:100880003B61304B5B6C2F4A43F4006353642D4B48
:100890005B6C03F400633B613B690023FB60294B05
:1008A0001B6B284A43F001031363264B1B6B03F0B9
:1008B0000103FB60FB680023BB60224B1B6B214ADA
:1008C00043F0020313631F4B1B6B03F00203BB6077
:1008D000BB684FF450737B610223BB610123FB6152
:1008E00003233B620C237B6207F11403194616486D
:1008F00000F0F6FC4FF400437B610223BB61002350
:10090000FB6103233B620C237B6207F1140319464E
:100910000E4800F0E5FC30237B610223BB6101231C
:10092000FB6103233B620C237B6207F1140319462E
:10093000064800F0D5FC00BF2837BD4680BD00BF8B
:10094000002C014000380240000002400004024038
:1009500080B400AFFEE780B400AFFEE780B400AF24
:10096000FEE780B400AFFEE780B400AFFEE780B4DE
:1009700000AF00BFBD465DF8047B704780B400AF98
:1009800000BFBD465DF8047B704780B400AF00BF78
:10099000BD465DF8047B704780B500AF00F06CF990
:1009A00000BF80BD80B586B000AFF860B9607A60E6
:1009B00000237B610AE0AFF300800146BB685A1C4C
:1009C000BA60CAB21A707B6901337B617A697B684D
:1009D0009A42F0DB7B6818461837BD4680BD80B56B
:1009E00086B000AFF860B9607A6000237B6109E0EF
:1009F000BB685A1CBA601B781846FFF7F5FE7B6986
:100A000001337B617A697B689A42F1DB7B68184627
:100A10001837BD4680BD80B483B000AF78604FF01A
:100A2000FF3318460C37BD465DF8047B704780B431
:100A300083B000AF786039603B684FF400525A6071
:100A4000002318460C37BD465DF8047B704780B420
:100A500083B000AF7860012318460C37BD465DF8BF
:100A6000047B704780B485B000AFF860B9607A60ED
:100A7000002318461437BD465DF8047B704700001C
:100A800080B586B000AF7860144A154BD31A7B61ED
:100A90007B693B61134B1B68002B02D1114B124A3F
:100AA0001A60104B1A687B6813443A699A4207D25D
:100AB00006F064F802460C2313604FF0FF3309E0A0
:100AC000084B1B68FB60074B1A687B681344054A98
:100AD0001360FB6818461837BD4680BD0000022031
:100AE000000400008C0000206042002080B400AFB1
:100AF000084BD3F88830074A43F47003C2F88830B3
:100B0000044B4FF000629A6000BFBD465DF8047B65
:100B1000704700BF00ED00E0DFF834D0002103E0B3
:100B20000C4B5B58435004310B480C4B42189A4213
:100B3000F6D30B4A02E0002342F8043B094B9A42E9
:100B4000F9D3FFF7D3FF06F01FF8FFF741FD704719
:100B500000000220807C00080000002070000020BF
:100B60007000002060420020FEE7000080B500AF6A
:100B70000E4B1B680D4A43F4007313600B4B1B684C
:100B80000A4A43F480631360084B1B68074A43F426
:100B900080731360032000F063F9002000F03CF83C
:100BA000FFF734FE0023184680BD00BF003C024022
:100BB00080B500AF134B4FF0FF321A62114B002289
:100BC0001A62104B4FF0FF325A620E4B00225A62EB
:100BD0000C4B4FF0FF321A610A4B00221A61094B8D
:100BE0004FF0FF325A61074B00225A61054B4FF01C
:100BF000FF329A61034B00229A6100F005F800234E
:100C0000184680BD0038024080B400AF00BFBD462A
:100C10005DF8047B7047000080B582B000AF78605B
:100C2000124B1A68124B1B7819464FF47A73B3FBB8
:100C3000F1F3B2FBF3F3184600F039F90346002B49
:100C400001D001230EE07B680F2B0AD800227968BF
:100C50004FF0FF3000F00FF9064A7B681360002365
:100C600000E0012318460837BD4680BD0000002083
:100C7000080000200400002080B400AF064B1B7861
:100C80001A46064B1B681344044A136000BFBD4656
:100C90005DF8047B704700BF080000205001002071
:100CA00080B400AF034B1B681846BD465DF8047B5B
:100CB000704700BF5001002080B584B000AF78605D
:100CC000FFF7EEFFB8607B68FB60FB68B3F1FF3FA6
:100CD00005D0094B1B781A46FB681344FB6000BF24
:100CE000FFF7DEFF0246BB68D31AFA689A42F7D8CC
:100CF00000BF1037BD4680BD0800002080B485B01D
:100D000000AF78607B6803F00703FB600C4BDB6887
:100D1000BB60BA684FF6FF031340BB60FB681A0262
:100D2000BB68134343F0BF6343F40033BB60044A22
:100D3000BB68D36000BF1437BD465DF8047B7047C5
:100D400000ED00E080B400AF044BDB681B0A03F049
:100D500007031846BD465DF8047B704700ED00E0D0
:100D600080B483B000AF03463960FB7197F9073058
:100D7000002B0ADB3B68DAB20C4997F90730120105
:100D8000D2B20B4483F800230AE03B68DAB2084988
:100D9000FB7903F00F03043B1201D2B20B441A7625
:100DA00000BF0C37BD465DF8047B704700E100E0F2
:100DB00000ED00E080B489B000AFF860B9607A60FF
:100DC000FB6803F00703FB61FB69C3F10703042B16
:100DD00028BF0423BB61FB690433062B02D9FB69DE
:100DE000033B00E000237B614FF0FF32BB6902FA56
:100DF00003F3DA43BB681A407B699A404FF0FF3136
:100E00007B6901FA03F3D9437B680B40134318460F
:100E10002437BD465DF8047B7047000080B582B082
:100E200000AF78607B68013BB3F1807F01D3012381
:100E30000FE00A4A7B68013B53600F214FF0FF30FF
:100E4000FFF78EFF054B00229A60044B07221A60C1
:100E5000002318460837BD4680BD00BF10E000E003
:100E600080B582B000AF78607868FFF747FF00BFB9
:100E70000837BD4680BD80B586B000AF0346B96077
:100E80007A60FB7300237B61FFF75CFF78617A680F
:100E9000B9687869FFF78EFF024697F90F3011465F
:100EA0001846FFF75DFF00BF1837BD4680BD80B50F
:100EB00082B000AF78607868FFF7B0FF034618464D
:100EC0000837BD4680BD000080B586B000AFF86031
:100ED000B960C7E900230123FB75234B1B7E012B5F
:100EE00001D102233BE0204B01221A764CF2503014
:100EF00000F070F80346FB75FB7D002B2BD1FB68DF
:100F0000002B05D13B781946B86800F019F916E0B6
:100F1000FB68012B05D13B881946B86800F0ECF856
:100F20000DE0FB68022B05D13B681946B86800F05C
:100F3000C1F804E0D7E90023B86800F08BF84CF260
:100F4000503000F047F80346FB75084B1B69074A11
:100F500023F001031361044B00221A76FB7D18462F
:100F60001837BD4680BD00BF54010020003C024040
:100F700080B483B000AF0023FB710B4B1B69002BC7
:100F80000BDA094B094A5A60074B094A5A60064B6B
:100F90001B69002B01DA0123FB71FB7918460C3722
:100FA000BD465DF8047B7047003C02402301674565
:100FB000AB89EFCD80B400AF054B1B69044A43F009
:100FC0000043136100231846BD465DF8047B70475B
:100FD000003C024080B584B000AF78600023FB6025
:100FE0001A4B0022DA61FFF75BFEF86010E07B68C5
:100FF000B3F1FF3F0CD07B68002B07D0FFF750FE0A
:101000000246FB68D31A7A689A4201D2032319E098
:101010000F4BDB6803F48033002BE8D10C4BDB680B
:1010200003F00103002B02D0094B0122DA60084BC8
:10103000DB6803F4F973002B03D000F0A3F801235D
:1010400000E0002318461037BD4680BD5401002043
:10105000003C024090B484B000AFF860C7E90023C0
:10106000134B1B69124A23F440731361104B1B6925
:101070000F4A43F4407313610D4B1B690C4A43F054
:1010800001031361FB683A681A60BFF36F8FD7E9F9
:1010900000124FF000034FF0000413000024FA6820
:1010A0000432136000BF1037BD4690BC704700BFCC
:1010B000003C024080B483B000AF786039600D4BD3
:1010C0001B690C4A23F4407313610A4B1B69094ADC
:1010D00043F400731361074B1B69064A43F0010395
:1010E00013617B683A681A6000BF0C37BD465DF833
:1010F000047B7047003C024080B483B000AF78604E
:101100000B467B800D4B1B690C4A23F44073136123
:101110000A4B1B69094A43F480731361074B1B692F
:10112000064A43F0010313617B687A881A8000BF86
:101130000C37BD465DF8047B704700BF003C0240A1
:1011400080B483B000AF78600B46FB700C4B1B691A
:101150000B4A23F440731361094B094A1B6913615D
:10116000074B1B69064A43F0010313617B68FA7859
:101170001A7000BF0C37BD465DF8047B704700BF96
:10118000003C024080B400AF2F4BDB6803F010033B
:10119000002B08D02D4BDB6943F010032B4AD361A1
:1011A000294B1022DA60284BDB6803F02003002B68
:1011B00008D0264BDB6943F00803244AD361224B55
:1011C0002022DA60204BDB6803F04003002B08D0BC
:1011D0001E4BDB6943F004031C4AD3611A4B4022C7
:1011E000DA60194BDB6803F08003002B08D0174B43
:1011F000DB6943F00203154AD361134B8022DA60A6
:10120000114BDB6803F48073002B09D00F4BDB69B3
:1012100043F001030D4AD3610B4B4FF48072DA6047
:10122000094BDB6803F00203002B08D0074BDB6996
:1012300043F02003054AD361034B0222DA6000BF6A
:10124000BD465DF8047B7047003C0240540100201D
:1012500080B485B000AF78600B46FB700023FB6064
:10126000FB78002B02D10023FB6010E0FB78012B00
:1012700003D14FF48073FB6009E0FB78022B03D1AC
:101280004FF40073FB6002E04FF44073FB60134BBC
:101290001B69124A23F440731361104B1A690F49FA
:1012A000FB6813430B610D4B1B690C4A23F0F803D9
:1012B00013610A4B1A697B68DB001343074A43F04A
:1012C00002031361054B1B69044A43F48033136125
:1012D00000BF1437BD465DF8047B7047003C0240F8
:1012E00080B489B000AF7860396000237B6100234F
:1012F0003B610023BB610023FB6159E10122FB69D3
:1013000002FA03F37B613B681B687A6913403B6117
:101310003A697B699A4240F048813B685B68012BDF
:101320000BD03B685B68022B07D03B685B68112BD6
:1013300003D03B685B68122B30D17B689B68BB6134
:10134000FB695B00032202FA03F3DB43BA69134033
:10135000BB613B68DA68FB695B0002FA03F3BA69B8
:101360001343BB617B68BA699A607B685B68BB6149
:101370000122FB6902FA03F3DB43BA691340BB6144
:101380003B685B681B0903F00102FB6902FA03F387
:10139000BA691343BB617B68BA695A607B68DB68D2
:1013A000BB61FB695B00032202FA03F3DB43BA690A
:1013B0001340BB613B689A68FB695B0002FA03F368
:1013C000BA691343BB617B68BA69DA603B685B68E2
:1013D000022B03D03B685B68122B23D1FB69DA0830
:1013E0007B68083253F82230BB61FB6903F00703C6
:1013F0009B000F2202FA03F3DB43BA691340BB617F
:101400003B681A69FB6903F007039B0002FA03F3C8
:10141000BA691343BB61FB69DA087B680832B969B2
:1014200043F822107B681B68BB61FB695B000322E9
:1014300002FA03F3DB43BA691340BB613B685B68A4
:1014400003F00302FB695B0002FA03F3BA6913437A
:10145000BB617B68BA691A603B685B6803F08053C4
:10146000002B00F0A2800023FB60564B5B6C554ABA
:1014700043F480435364534B5B6C03F48043FB6041
:10148000FB68514AFB699B08023352F82330BB6169
:10149000FB6903F003039B000F2202FA03F3DB4313
:1014A000BA691340BB617B68484A934219D07B6894
:1014B000474A934213D07B68464A93420DD07B68DB
:1014C000454A934207D07B68444A934201D10423A2
:1014D00008E0072306E0032304E0022302E00123DF
:1014E00000E00023FA6902F0030292009340BA6917
:1014F0001343BB613449FB699B080233BA6941F865
:101500002320374B1B68BB613B69DB43BA6913403F
:10151000BB613B685B6803F48033002B03D0BA697E
:101520003B691343BB612E4ABB6913602C4B5B685C
:10153000BB613B69DB43BA691340BB613B685B68D5
:1015400003F40033002B03D0BA693B691343BB613A
:10155000234ABB695360224B9B68BB613B69DB43F9
:10156000BA691340BB613B685B6803F48013002BCE
:1015700003D0BA693B691343BB61194ABB699360E5
:10158000174BDB68BB613B69DB43BA691340BB6146
:101590003B685B6803F40013002B03D0BA693B6916
:1015A0001343BB610E4ABB69D360FB690133FB6126
:1015B000FB690F2B7FF6A2AE00BF2437BD465DF856
:1015C000047B7047003802400038014000000240B0
:1015D0000004024000080240000C024000100240DB
:1015E000003C014080B483B000AF78600B467B8044
:1015F00013467B707B78002B03D07A887B689A61D6
:1016000003E07B881A047B689A6100BF0C37BD46F3
:101610005DF8047B704780B483B000AF78600B4600
:101620007B807B685A697B881A407B889A4204D108
:101630007B881A047B689A6102E07A887B689A61E9
:1016400000BF0C37BD465DF8047B704780B586B09F
:1016500000AF78607B68002B01D101235BE27B68DF
:101660001B6803F00103002B75D0A34B9B6803F0AC
:101670000C03042B0CD0A04B9B6803F00C03082B2D
:1016800012D19D4B5B6803F48003B3F5800F0BD13F
:10169000994B1B6803F40033002B5BD07B685B68BD
:1016A000002B57D1012336E27B685B68B3F5803F9E
:1016B00006D1914B1B68904A43F4803313601DE0C0
:1016C0007B685B68B3F5A02F0CD18B4B1B688A4AF3
:1016D00043F480231360884B1B68874A43F48033AC
:1016E00013600BE0844B1B68834A23F48033136040
:1016F000814B1B68804A23F4802313607B685B68FE
:10170000002B13D0FFF7CCFA386108E0FFF7C8FAD6
:1017100002463B69D31A642B01D90323FBE1764BC4
:101720001B6803F40033002BF0D014E0FFF7B8FA85
:10173000386108E0FFF7B4FA02463B69D31A642B1C
:1017400001D90323E7E16C4B1B6803F40033002B42
:10175000F0D100E000BF7B681B6803F00203002BA0
:1017600063D0654B9B6803F00C03002B0BD0624BDE
:101770009B6803F00C03082B1CD15F4B5B6803F4E0
:101780008003002B16D15C4B1B6803F00203002B77
:1017900005D07B68DB68012B01D00123BBE1564BF0
:1017A0001B6823F0F8027B681B69DB005249134376
:1017B0000B603AE07B68DB68002B20D04F4B0122A6
:1017C0001A60FFF76DFA386108E0FFF769FA024620
:1017D0003B69D31A022B01D903239CE1464B1B68BA
:1017E00003F00203002BF0D0434B1B6823F0F802F8
:1017F0007B681B69DB00404913430B6015E03F4BDE
:1018000000221A60FFF74CFA386108E0FFF748FA47
:1018100002463B69D31A022B01D903237BE1364BE5
:101820001B6803F00203002BF0D17B681B6803F0F8
:101830000803002B30D07B685B69002B16D0304B3F
:1018400001221A60FFF72CFA386108E0FFF728FA46
:1018500002463B69D31A022B01D903235BE1264BD5
:101860005B6F03F00203002BF0D015E0244B002245
:101870001A60FFF715FA386108E0FFF711FA02461F
:101880003B69D31A022B01D9032344E11A4B5B6F46
:1018900003F00203002BF0D17B681B6803F0040304
:1018A000002B00F0A0800023FB75134B1B6C03F092
:1018B0008053002B0FD10023BB600F4B1B6C0E4AD3
:1018C00043F0805313640C4B1B6C03F08053BB60DC
:1018D000BB680123FB750B4B1B6803F48073002B63
:1018E00021D1084B1B68074A43F480731360FFF74C
:1018F000D7F9386111E000BF0038024000004742CC
:10190000800E474200700040FFF7CAF902463B696B
:10191000D31A022B01D90323FDE0814B1B6803F48A
:101920008073002BF0D07B689B68012B06D17D4B28
:101930001B6F7C4A43F0010313671CE07B689B68C4
:10194000052B0CD1774B1B6F764A43F004031367CA
:10195000744B1B6F734A43F0010313670BE0714B29
:101960001B6F704A23F0010313676E4B1B6F6D4AA8
:1019700023F0040313677B689B68002B15D0FFF7E7
:101980008FF938610AE0FFF78BF902463B69D31AF9
:1019900041F28832934201D90323BCE0614B1B6FB3
:1019A00003F00203002BEED014E0FFF779F9386161
:1019B0000AE0FFF775F902463B69D31A41F2883213
:1019C000934201D90323A6E0564B1B6F03F0020399
:1019D000002BEED1FB7D012B05D1524B1B6C514AE4
:1019E00023F0805313647B689B69002B00F0928086
:1019F0004C4B9B6803F00C03082B5CD07B689B6905
:101A0000022B41D1484B00221A60FFF749F9386197
:101A100008E0FFF745F902463B69D31A022B01D9CA
:101A2000032378E03F4B1B6803F00073002BF0D1D9
:101A30007B68DA697B681B6A1A437B685B6A9B0177
:101A40001A437B689B6A5B08013B1B041A437B6853
:101A5000DB6A1B06334913434B60334B01221A6088
:101A6000FFF71EF9386108E0FFF71AF902463B69F3
:101A7000D31A022B01D903234DE02A4B1B6803F034
:101A80000073002BF0D045E0274B00221A60FFF7CF
:101A900007F9386108E0FFF703F902463B69D31AFA
:101AA000022B01D9032336E01E4B1B6803F00073A1
:101AB000002BF0D12EE07B689B69012B01D1012323
:101AC00029E0184B5B68FB60FB6803F480027B68CD
:101AD000DB699A421CD1FB6803F03F027B681B6AFA
:101AE0009A4215D1FA6847F6C07313407A68526A71
:101AF00093420DD1FB6803F440327B689B6A9A42A3
:101B000006D1FB6803F070627B68DB6A9A4201D001
:101B1000012300E0002318461837BD4680BD00BFF2
:101B200000700040003802406000474280B584B039
:101B300000AF786039607B68002B01D10123CCE0D5
:101B4000684B1B6803F00F033A689A420CD9654B47
:101B50003A68D2B21A70634B1B6803F00F033A68FD
:101B60009A4201D00123B8E07B681B6803F00203AE
:101B7000002B20D07B681B6803F00403002B05D0EA
:101B8000594B9B68584A43F4E05393607B681B6849
:101B900003F00803002B05D0534B9B68524A43F4D3
:101BA00060439360504B9B6823F0F0027B689B6816
:101BB0004D4913438B607B681B6803F00103002BC6
:101BC00044D07B685B68012B07D1474B1B6803F44B
:101BD0000033002B19D101237FE07B685B68022B67
:101BE00003D07B685B68032B07D13F4B1B6803F076
:101BF0000073002B09D101236FE03B4B1B6803F0FE
:101C00000203002B01D1012367E0374B9B6823F0CF
:101C100003027B685B68344913438B60FFF740F82D
:101C2000F8600AE0FFF73CF80246FB68D31A41F27D
:101C30008832934201D903234FE02B4B9B6803F07A
:101C40000C027B685B689B009A42EBD1254B1B68BA
:101C500003F00F033A689A420CD2224B3A68D2B290
:101C60001A70204B1B6803F00F033A689A4201D0A8
:101C7000012332E07B681B6803F00403002B08D0CB
:101C8000194B9B6823F4E0527B68DB6816491343C9
:101C90008B607B681B6803F00803002B09D0124B94
:101CA0009B6823F460427B681B69DB000E49134389
:101CB0008B6000F021F801460B4B9B681B0903F079
:101CC0000F030A4AD35C21FA03F3094A1360094B54
:101CD0001B681846FEF7A0FF002318461037BD46C4
:101CE00080BD00BF003C024000380240347B000849
:101CF0000000002004000020F0B585B000AF0023F4
:101D00007B600023FB6000233B600023BB60504BE3
:101D10009B6803F00C03042B07D0082B08D0002B82
:101D200040F08D804B4BBB608CE04B4BBB6089E03F
:101D3000474B5B6803F03F037B60454B5B6803F4F4
:101D40008003002B23D0424B5B689B094FF00004BB
:101D500040F2FF114FF0000203EA010504EA020617
:101D60003D4A02FB06F1002202FB05F20A443A4911
:101D7000A5FB0101531819467B684FF000041A4671
:101D80002346FEF77DFA03460C46FB6049E0304BE4
:101D90005B689B094FF0000440F2FF114FF0000216
:101DA00003EA010504EA0206294632464FF0000321
:101DB0004FF00004540144EAD1644B011946224615
:101DC000491B62EB06024FF000034FF00004940140
:101DD00044EA91648B015B1A64EB02044FF000014A
:101DE0004FF00002E20042EA5372D9000B4614465B
:101DF0005B1944EB06044FF000014FF00002A20211
:101E000042EA935299020B461446184621467B68D3
:101E10004FF000041A462346FEF732FA03460C46FA
:101E2000FB600B4B5B681B0C03F0030301335B008F
:101E30003B60FA683B68B2FBF3F3BB6002E0054B22
:101E4000BB6000BFBB6818461437BD46F0BD00BF7D
:101E5000003802400024F40040787D0180B582B053
:101E600000AFFEF71DFF78605D4B1B685C4A43F0D6
:101E70000103136008E0FEF713FF02467B68D31AE4
:101E8000022B01D90323A7E0554B1B6803F0020383
:101E9000002BF0D0524B1B68514A43F08003136073
:101EA000FEF7FEFE78604E4B00229A600AE0FEF7D5
:101EB000F7FE02467B68D31A41F28832934201D979
:101EC000032389E0464B9B6803F00C03002BEED103
:101ED000FEF7E6FE7860424B1B68414A23F450232C
:101EE000136008E0FEF7DCFE02467B68D31A642B21
:101EF00001D9032370E03A4B1B6803F40033002B35
:101F0000F0D1FEF7CDFE7860354B1B68344A23F0E4
:101F10008073136008E0FEF7C3FE02467B68D31AA5
:101F2000022B01D9032357E02D4B1B6803F00073EC
:101F3000002BF0D1FEF7B4FE7860294B1B68284ACD
:101F400023F08063136008E0FEF7AAFE02467B6878
:101F5000D31A022B01D903233EE0214B1B6803F067
:101F60000063002BF0D11E4B1E4A5A601C4B1E4AC8
:101F7000C3F884201A4BDB68194A23F4F853D36062
:101F8000174BDB68164A23F40053D360144BDB680D
:101F9000134A43F41F03D360114BDB68104A43F428
:101FA0000013D3600E4B5B6F0D4A23F001035367A0
:101FB0000B4B5B6F0A4A43F0807353670B4B0C4A21
:101FC0001A600C4B1B681846FEF726FE0346002BD2
:101FD00001D0012300E0002318460837BD4680BD2C
:101FE00000380240103000041030002000000020B3
:101FF0000024F4000400002080B582B000AF7860B7
:102000007B68002B01D1012322E07B6893F83430F8
:10201000DBB2002B05D17B6800221A777868FEF7C7
:102020001DFC7B68032283F83420786800F014F8E4
:102030000346002B01D001230AE07B6800229A634B
:102040007B6800221A637B68012283F83420002316
:1020500018460837BD4680BDB0B58EB004AF786075
:102060000023BB600023FB6000233B6100237B61F6
:102070000023BB617623FB617B681D686C4607F11A
:10208000140393E8070084E8070007F108030ECB68
:10209000284601F02DF9034687F8273097F82730B6
:1020A000002B01D0012331E01A4B00221A607B681B
:1020B0001B68184601F065F9164B01221A60786812
:1020C00000F000FF38623B6A002B0BD07B680122D6
:1020D00083F834207B689A6B3B6A1A437B689A6367
:1020E000012313E0786800F01FFE38623B6A002B82
:1020F0000BD07B68012283F834207B689A6B3B6AA3
:102100001A437B689A63012300E0002318462837AE
:10211000BD46B0BDA080254280B592B000AFF8604A
:10212000B9607A603B60FEF7BBFD38637B68BB63D8
:10213000BB687B63BB68002B07D1FB689B6B43F0DC
:102140000062FB689A630123D9E1FB6893F834309D
:10215000DBB2012B40F0CC81FB6800229A63BA6BA2
:102160003B681A44FB68DB6D9A4207D9FB689B6B9E
:1021700043F00072FB689A630123C0E1FB6803220D
:1021800083F83420FB681B680022DA62FB685B6C12
:10219000012B02D0BB6B5B02BB63FB681B684FF477
:1021A0000071184601F080F978647B6C002B0FD029
:1021B000FB681B689B4A9A63FB689A6B7B6C1A43AB
:1021C000FB689A63FB68012283F83420012396E1BF
:1021D0004FF0FF337B613B685B02BB619023FB6187
:1021E00002233B6200237B620123BB62FB681B6806
:1021F00007F114021146184601F02AF93B68012B39
:102200000AD9FB6802221A63FB681B68B96B18467F
:1022100001F08EF9786409E0FB6801221A63FB681B
:102220001B68B96B184601F061F978647B6C002B70
:1022300012D0FB681B687B4A9A63FB689A6B7B6CC5
:102240001A43FB689A63FB68012283F83420FB6819
:1022500000221A63012352E1BB69FB6361E0FB6862
:102260001B685B6B03F40043002B3CD0FB6B002B23
:1022700039D000233B6433E0FB681B68184601F04B
:1022800062F8F862FB6ADAB27B6B1A707B6B01331F
:102290007B63FB6B013BFB63FB6A1B0ADAB27B6B64
:1022A0001A707B6B01337B63FB6B013BFB63FB6A47
:1022B0001B0CDAB27B6B1A707B6B01337B63FB6B9D
:1022C000013BFB63FB6A1B0EDAB27B6B1A707B6B04
:1022D00001337B63FB6B013BFB633B6C01333B6472
:1022E0003B6C072BC8D9FEF7DBFC02463B6BD31ACD
:1022F0003A6D9A4202D93B6D002B12D1FB681B68E4
:10230000484A9A63FB689B6B43F00042FB689A6300
:10231000FB68012283F83420FB6800221A63032340
:10232000EDE0FB681B685A6B40F22A331340002B28
:1023300095D0FB681B685B6B03F48073002B22D085
:102340003B68012B1FD9FB685B6C032B1BD0FB6820
:102350001B68184601F052F978647B6C002B12D090
:10236000FB681B682F4A9A63FB689A6B7B6C1A4365
:10237000FB689A63FB68012283F83420FB68002223
:102380001A630123BBE0FB681B685B6B03F0080367
:10239000002B12D0FB681B68224A9A63FB689B6B78
:1023A00043F00802FB689A63FB68012283F834203B
:1023B000FB6800221A630123A1E0FB681B685B6BCA
:1023C00003F00203002B12D0FB681B68154A9A63C6
:1023D000FB689B6B43F00202FB689A63FB68012277
:1023E00083F83420FB6800221A63012387E0FB682E
:1023F0001B685B6B03F02003002B64D0FB681B6839
:10240000084A9A63FB689B6B43F02002FB689A635F
:10241000FB68012283F83420FB6800221A63012341
:102420006DE000BFFF054000FB681B68184600F028
:102430008AFFF862FB6ADAB27B6B1A707B6B01333E
:102440007B63FB6B013BFB63FB6A1B0ADAB27B6BB2
:102450001A707B6B01337B63FB6B013BFB63FB6A95
:102460001B0CDAB27B6B1A707B6B01337B63FB6BEB
:10247000013BFB63FB6A1B0EDAB27B6B1A707B6B52
:1024800001337B63FB6B013BFB63FEF709FC0246F8
:102490003B6BD31A3A6D9A4202D93B6D002B12D195
:1024A000FB681B68184A9A63FB689B6B43F0004209
:1024B000FB689A63FB68012283F83420FB680022E2
:1024C0001A6301231BE0FB681B685B6B03F40013BA
:1024D000002B02D0FB6B002BA6D1FB681B6840F2DF
:1024E0003A529A63FB68012283F83420002306E005
:1024F000FB689B6B43F00052FB689A63012318460C
:102500004837BD4680BD00BFFF05400080B592B092
:1025100000AFF860B9607A603B60FEF7C1FB3863DA
:102520007B68BB63BB687B63BB68002B07D1FB6820
:102530009B6B43F00062FB689A63012384E1FB68B4
:1025400093F83430DBB2012B40F07781FB68002236
:102550009A63BA6B3B681A44FB68DB6D9A4207D9F1
:10256000FB689B6B43F00072FB689A6301236BE18D
:10257000FB68032283F83420FB681B680022DA62C0
:10258000FB685B6C012B02D0BB6B5B02BB63FB681F
:102590001B684FF40071184600F086FF78647B6C6E
:1025A000002B0FD0FB681B689D4A9A63FB689A6BEF
:1025B0007B6C1A43FB689A63FB68012283F8342022
:1025C000012341E14FF0FF33BB613B685B02FB61DC
:1025D00090233B6200237B620023BB620123FB62EA
:1025E000FB681B6807F118021146184600F030FF1F
:1025F0003B68012B0AD9FB6820221A63FB681B6821
:10260000B96B184600F0D8FF786409E0FB68102227
:102610001A63FB681B68B96B184600F0ABFF78645F
:102620007B6C002B12D0FB681B687D4A9A63FB68A9
:102630009A6B7B6C1A43FB689A63FB68012283F8F0
:102640003420FB6800221A630123FDE0FB69FB6371
:1026500065E0FB681B685B6B03F48043002B40D094
:10266000FB6B002B3DD000233B6437E07B6B1B787A
:102670007B617B6B01337B63FB6B013BFB637B6BA0
:102680001B781A027B6913437B617B6B01337B638D
:10269000FB6B013BFB637B6B1B781A047B69134369
:1026A0007B617B6B01337B63FB6B013BFB637B6B70
:1026B0001B781A067B6913437B617B6B01337B6359
:1026C000FB6B013BFB63FB681B6807F114021146BF
:1026D000184600F045FE3B6C01333B643B6C072B16
:1026E000C4D9FEF7DDFA02463B6BD31A3A6D9A4223
:1026F00002D93B6D002B12D1FB681B68484A9A63D4
:10270000FB689A6B7B6C1A43FB689A63FB68012237
:1027100083F83420FB6800221A63032394E0FB68EB
:102720001B685A6B40F21A331340002B91D0FB68A0
:102730001B685B6B03F48073002B22D03B68012B7A
:102740001FD9FB685B6C032B1BD0FB681B6818460A
:1027500000F054FF78647B6C002B12D0FB681B6880
:102760002F4A9A63FB689A6B7B6C1A43FB689A63E7
:10277000FB68012283F83420FB6800221A630123DE
:1027800062E0FB681B685B6B03F00803002B12D050
:10279000FB681B68224A9A63FB689B6B43F0080244
:1027A000FB689A63FB68012283F83420FB680022EF
:1027B0001A63012348E0FB681B685B6B03F00203AC
:1027C000002B12D0FB681B68154A9A63FB689B6B51
:1027D00043F00202FB689A63FB68012283F834200D
:1027E000FB6800221A6301232EE0FB681B685B6B09
:1027F00003F01003002B15D0FB681B68084A9A638E
:10280000FB689B6B43F01002FB689A63FB68012234
:1028100083F83420FB6800221A63012314E000BF10
:10282000FF054000FB681B6840F23A529A63FB6860
:10283000012283F83420002306E0FB689B6B43F001
:102840000052FB689A63012318464837BD4680BD95
:1028500080B483B000AF786039607B685B6E9B0F9B
:10286000DAB23B681A707B685B6E9B0EDBB203F0DA
:102870000F03DAB23B685A707B685B6E1B0EDBB2EB
:1028800003F00303DAB23B689A707B685B6E1B0C43
:10289000DAB23B68DA707B685B6E1B0ADAB23B68BF
:1028A0001A717B685B6EDAB23B685A717B689B6E0B
:1028B0001B0D9AB23B68DA807B689B6E1B0CDBB207
:1028C00003F00F03DAB23B681A727B689B6EDB0B76
:1028D000DBB203F00103DAB23B685A727B689B6E8D
:1028E0009B0BDBB203F00103DAB23B689A727B68A0
:1028F0009B6E5B0BDBB203F00103DAB23B68DA726A
:102900007B689B6E1B0BDBB203F00103DAB23B6802
:102910001A733B6800225A737B685B6C002B63D18F
:102920007B689B6E9A0040F6FC7313407A68D26E07
:10293000920F1A433B681A617B68DB6EDB0EDBB2D9
:1029400003F00703DAB23B681A757B68DB6E1B0E77
:10295000DBB203F00703DAB23B685A757B68DB6EC3
:102960005B0DDBB203F00703DAB23B689A757B6854
:10297000DB6E9B0CDBB203F00703DAB23B68DA755F
:102980007B68DB6EDB0BDBB203F00703DAB23B687C
:102990001A763B681B695A1C7B685A653B681B7E2C
:1029A000DBB203F007030233012202FA03F37A6871
:1029B000526D02FB03F27B685A653B681B7ADBB2FF
:1029C00003F00F0301229A407B689A657B685B6D78
:1029D0007A68926D520A02FB03F27B68DA657B68C3
:1029E0004FF400721A6631E07B685B6C012B1DD1DD
:1029F0007B689B6E1B0403F47C127B68DB6E1B0CF4
:102A00001A433B681A613B681B6901339A027B6871
:102A10005A657B685A6D7B68DA657B684FF4007293
:102A20009A657B689A6D7B681A660FE07B681B6805
:102A3000584A9A637B689B6B43F080527B689A6329
:102A40007B68012283F8342001239DE07B68DB6EE4
:102A50009B0BDBB203F00103DAB23B685A767B686A
:102A6000DB6EDB09DBB203F07F03DAB23B689A76F8
:102A70007B68DB6EDBB203F07F03DAB23B68DA76A9
:102A80007B681B6FDB0FDAB23B681A777B681B6FC2
:102A90005B0FDBB203F00303DAB23B685A777B6863
:102AA0001B6F9B0EDBB203F00703DAB23B689A7729
:102AB0007B681B6F9B0DDBB203F00F03DAB23B6840
:102AC000DA777B681B6F5B0DDBB203F00103DAB2D0
:102AD0003B6883F820203B68002283F821207B6834
:102AE0001B6F1B0CDBB203F00103DAB23B6883F807
:102AF00022207B681B6FDB0BDBB203F00103DAB231
:102B00003B6883F823207B681B6F9B0BDBB203F0D1
:102B10000103DAB23B6883F824207B681B6F5B0BF0
:102B2000DBB203F00103DAB23B6883F825207B684F
:102B30001B6F1B0BDBB203F00103DAB23B6883F8B7
:102B400026207B681B6F9B0ADBB203F00303DAB21B
:102B50003B6883F827207B681B6F1B0ADBB203F0FE
:102B60000303DAB23B6883F828207B681B6F5B089D
:102B7000DBB203F07F03DAB23B6883F829203B68BD
:102B8000012283F82A20002318460C37BD465DF841
:102B9000047B7047FF05400080B483B000AF7860CD
:102BA00039607B685A6C3B681A607B689A6C3B683A
:102BB0005A607B68DA6C3B689A607B681A6D3B6888
:102BC000DA607B685A6D3B681A617B689A6D3B6876
:102BD0005A617B68DA6D3B689A617B681A6E3B6864
:102BE000DA61002318460C37BD465DF8047B704758
:102BF000B0B58EB004AF786039607B68032283F88B
:102C000034207B685B6C032B2ED03B68B3F5805F70
:102C100006D17B689B6B43F080527B689A6329E006
:102C20003B68B3F5006F0AD1786800F001FA78626A
:102C30007B689A6B7B6A1A437B689A631AE03B68ED
:102C4000002B0AD1786800F03EFA78627B689A6BB4
:102C50007B6A1A437B689A630CE07B689B6B43F04A
:102C600000627B689A6305E07B689B6B43F080524F
:102C70007B689A637B689B6B002B09D07B681B6821
:102C8000184A9A637B68012283F83420012324E0E8
:102C90007B685B68FB607B689B683B617B68DB688B
:102CA0007B613B68BB617B685B69FB617B689B699F
:102CB0003B627B681D686C4607F1180393E80700C8
:102CC00084E8070007F10C030ECB284600F010FB48
:102CD0007B68012283F83420002318462837BD463C
:102CE000B0BD00BFFF05400080B586B000AF786082
:102CF0000023FB6007F10C031946786800F070F9B7
:102D000078617B69002B05D07B689A6B7B691A43DD
:102D10007B689A63FB685B0A03F00F033B613B69C6
:102D200018461837BD4680BDB0B594B004AF786082
:102D30000123FB817B681B68184600F031FB0346CA
:102D4000002B02D14FF08063B7E07B685B6C032BF4
:102D50002FD07B681B68184600F05AFDF863FB6BA8
:102D6000002B01D0FB6BA8E07B681B680021184694
:102D700000F05BFB02467B685A677B681B68042196
:102D8000184600F052FB02467B689A677B681B6816
:102D90000821184600F049FB02467B68DA677B6829
:102DA0001B680C21184600F040FB02467B68C3F804
:102DB00080207B685B6C032B0DD07B681B6807F160
:102DC0000E021146184600F060FDF863FB6B002B05
:102DD00001D0FB6B71E07B685B6C032B36D0FB8909
:102DE0001A467B681A657B681A687B681B6D1B0432
:102DF0001946104600F02AFDF863FB6B002B01D04A
:102E0000FB6B5AE07B681B680021184600F00DFB45
:102E100002467B685A667B681B680421184600F0EE
:102E200004FB02467B689A667B681B68082118468B
:102E300000F0FBFA02467B68DA667B681B680C21AF
:102E4000184600F0F2FA02467B681A677B681B6836
:102E50000421184600F0E9FA03461A0D7B68DA648B
:102E600007F1100319467868FFF7F2FC0346002BC0
:102E700002D04FF0805320E07B6819687B681B6D9F
:102E80001B044FF000041A462346084600F0D8FB06
:102E9000F863FB6B002B01D0FB6B0EE07B681D68B9
:102EA0007B686C4603F1100207CA84E8070004330C
:102EB0000ECB284600F01CFA002318464037BD46CA
:102EC000B0BD000080B586B000AF78600023BB6065
:102ED00000237B6100233B617B681B68184600F080
:102EE000D2FBF860FB68002B01D0FB6872E07B68C6
:102EF0001B68184600F0E5FBF860FB68002B0DD05E
:102F00007B6800229A647B681B68184600F0BBFB54
:102F1000F860FB68002B04D0FB685BE07B68012253
:102F20009A647B689B6C012B37D17B681B680021FE
:102F3000184600F0E5FBF860FB68002B2DD04FF041
:102F4000805347E07B681B680021184600F0D8FBDF
:102F5000F860FB68002B01D0FB683BE07B681B68D6
:102F60001E49184600F0EEFBF860FB68002B02D00B
:102F70004FF080532EE07B681B680021184600F05C
:102F800054FA78617B69DB0F012B01D1012300E04A
:102F900000233B61BB680133BB60BB684FF6FE7228
:102FA000934202D83B69002BCCD0BB684FF6FE722F
:102FB000934202D94FF080730CE07B6903F08043A9
:102FC000002B03D07B6801225A6402E07B68002258
:102FD0005A64002318461837BD4680BD000010C152
:102FE00080B584B000AF786039603B68002B02D1B7
:102FF0004FF0006318E07B681A687B681B6D1B0448
:103000001946104600F062FCF860FB68002B01D006
:10301000FB6809E07B681B680021184600F005FA90
:1030200002463B681A60002318461037BD4680BD33
:1030300080B586B000AF78600023FB6000233B6161
:103040007B681B680021184600F0EFF9034603F087
:103050000073B3F1007F02D14FF400632FE007F15A
:103060000C031946786800F079F878617B69002BC9
:1030700001D07B6923E03B6903F48023002B1CD043
:103080007B681A687B681B6D1B041946104600F0AC
:1030900037FB78617B69002B01D07B690FE07B688F
:1030A0001B680221184600F070FB78617B69002BD9
:1030B00001D07B6903E0002301E04FF080631846F4
:1030C0001837BD4680BD80B586B000AF786000235C
:1030D000FB6000233B617B681B680021184600F001
:1030E000A4F9034603F00073B3F1007F02D14FF45B
:1030F00000632FE007F10C031946786800F02EF802
:1031000078617B69002B01D07B6923E03B6903F484
:103110008033002B1CD07B681A687B681B6D1B04F6
:103120001946104600F0ECFA78617B69002B01D05B
:103130007B690FE07B681B680021184600F025FBC7
:1031400078617B69002B01D07B6903E0002301E0FB
:103150004FF0806318461837BD4680BD90B58FB0DC
:1031600000AF78603960FDF79BFD386300237B6317
:103170000023BB600023FB603B68FB627B681B682D
:103180000821184600F090F9B862BB6A002B01D004
:10319000BB6AA9E07B681A687B681B6D1B04194633
:1031A000104600F0ADFAB862BB6A002B01D0BB6AD2
:1031B0009AE04FF0FF333B6108237B613023BB6112
:1031C0000223FB6100233B6201237B627B681B6857
:1031D00007F110021146184600F03AF97B681B68A7
:1031E000184600F0F4FAB862BB6A002B22D0BB6A22
:1031F0007AE07B681B685B6B03F40013002B0ED036
:103200007B6819687B6B9B0007F10802D41808469D
:1032100000F099F8034623607B6B01337B63FDF775
:103220003FFD02463B6BD31AB3F1FF3F02D14FF093
:10323000004359E07B681B685A6B40F22A431340F5
:10324000002BD6D07B681B685B6B03F00803002B58
:1032500005D07B681B6808229A63082344E07B68DA
:103260001B685B6B03F00203002B05D07B681B68B7
:1032700002229A63022337E07B681B685B6B03F0D2
:103280002003002B05D07B681B6820229A63202333
:103290002AE07B681B6840F23A529A63FB681A0680
:1032A000FB681B0203F47F031A43FB681B0A03F449
:1032B0007F431A43FB681B0E1A43FB6A1A60FB6AC2
:1032C0000433FB62BB681A06BB681B0203F47F036E
:1032D0001A43BB681B0A03F47F431A43BB681B0EE7
:1032E0001A43FB6A1A60002318463C37BD4690BD5E
:1032F00084B080B485B000AF786007F11C0080E82E
:103300000E000023FB60FA693B6A1A437B6A1A438A
:10331000BB6A1A43FB6A1A433B6B1343FA681343B5
:10332000FB607B685B6823F4FD4323F07F03FA684E
:103330001A437B685A60002318461437BD465DF86F
:10334000047B04B0704780B483B000AF78607B68C2
:10335000D3F8803018460C37BD465DF8047B7047C3
:1033600080B483B000AF786039603B681A687B68CE
:10337000C3F88020002318460C37BD465DF8047B57
:10338000704780B582B000AF78607B6803221A6016
:103390000220FDF791FC002318460837BD4680BD8A
:1033A00080B483B000AF78607B681B6803F00303D0
:1033B00018460C37BD465DF8047B704780B485B075
:1033C00000AF786039600023FB603B681A687B6857
:1033D0009A603B685A683B689B681A433B68DB68A5
:1033E0001A433B681B691343FA681343FB607B680D
:1033F000DB6823F47F6323F00F03FA681A437B68CA
:10340000DA60002318461437BD465DF8047B704728
:1034100080B483B000AF78607B681B69DBB218466C
:103420000C37BD465DF8047B704780B485B000AFB3
:10343000786039607B6814331A463B681344FB603C
:10344000FB681B6818461437BD465DF8047B70475F
:1034500080B485B000AF786039600023FB603B68C2
:103460001A687B685A623B685A687B689A623B6854
:103470009A683B68DB681A433B681B691A433B68E0
:103480005B691343FA681343FB607B68DB6A23F0D4
:10349000F702FB681A437B68DA6200231846143788
:1034A000BD465DF8047B704780B588B000AF78609A
:1034B00039603B68BB601023FB6040233B61002305
:1034C0007B614FF48063BB6107F10803194678689C
:1034D000FFF774FF41F288321021786800F040FA5B
:1034E000F861FB6918462037BD4680BD80B588B0BD
:1034F00000AF786039603B68BB601123FB604023FC
:103500003B6100237B614FF48063BB6107F10803DB
:1035100019467868FFF752FF41F288321121786826
:1035200000F01EFAF861FB6918462037BD4680BDE1
:1035300080B588B000AF786039603B68BB6012230B
:10354000FB6040233B6100237B614FF48063BB61E0
:1035500007F1080319467868FFF730FF41F2883217
:103560001221786800F0FCF9F861FB6918462037F1
:10357000BD4680BD80B588B000AF786039603B68DB
:10358000BB601823FB6040233B6100237B614FF449
:103590008063BB6107F1080319467868FFF70EFFE7
:1035A00041F288321821786800F0DAF9F861FB6995
:1035B00018462037BD4680BD80B588B000AF786022
:1035C00039603B68BB601923FB6040233B610023EB
:1035D0007B614FF48063BB6107F10803194678688B
:1035E000FFF7ECFE41F288321921786800F0B8F953
:1035F000F861FB6918462037BD4680BD80B588B0AC
:1036000000AF78600023BB600C23FB6040233B616C
:1036100000237B614FF48063BB6107F10803194607
:103620007868FFF7CBFE054A0C21786800F098F91E
:10363000F861FB6918462037BD4680BD00E1F505FD
:1036400080B58AB000AFF860C7E900233B683B61F2
:1036500007237B614023BB610023FB614FF4806340
:103660003B6207F110031946F868FFF7A7FE41F225
:1036700088320721F86800F073F978627B6A18468F
:103680002837BD4680BD80B588B000AF7860002384
:10369000BB600023FB6000233B6100237B614FF490
:1036A0008063BB6107F1080319467868FFF786FE5F
:1036B000786800F02DF9F861FB6918462037BD469F
:1036C00080BD80B588B000AF78604FF4D573BB6023
:1036D0000823FB6040233B6100237B614FF4806340
:1036E000BB6107F1080319467868FFF767FE786841
:1036F00000F016FBF861FB6918462037BD4680BD17
:1037000080B588B000AF786039603B68BB60372314
:10371000FB6040233B6100237B614FF48063BB610E
:1037200007F1080319467868FFF748FE41F288322E
:103730003721786800F014F9F861FB6918462037E2
:10374000BD4680BD80B588B000AF786039603B6809
:1037500043F0004343F48013BB602923FB60402304
:103760003B6100237B614FF48063BB6107F1080379
:1037700019467868FFF722FE786800F023FAF861AE
:10378000FB6918462037BD4680BD80B588B000AFC4
:10379000786039603B68BB600623FB6040233B6177
:1037A00000237B614FF48063BB6107F10803194676
:1037B0007868FFF703FE41F288320621786800F04E
:1037C000CFF8F861FB6918462037BD4680BD80B54B
:1037D00088B000AF78600023BB603323FB604023D8
:1037E0003B6100237B614FF48063BB6107F10803F9
:1037F00019467868FFF7E2FD41F288323321786894
:1038000000F0AEF8F861FB6918462037BD4680BD70
:1038100080B588B000AF78600023BB600223FB60F6
:10382000C0233B6100237B614FF48063BB6107F1E0
:10383000080319467868FFF7C1FD786800F07CF945
:10384000F861FB6918462037BD4680BD80B588B059
:1038500000AF786039603B68BB600923FB60C02320
:103860003B6100237B614FF48063BB6107F1080378
:1038700019467868FFF7A2FD786800F05DF9F861F5
:10388000FB6918462037BD4680BD80B588B000AFC3
:10389000786039600023BB600323FB6040233B61F9
:1038A00000237B614FF48063BB6107F10803194675
:1038B0007868FFF783FD3A680321786800F0BCF967
:1038C000F861FB6918462037BD4680BD80B588B0D9
:1038D00000AF786039603B68BB600D23FB6040231C
:1038E0003B6100237B614FF48063BB6107F10803F8
:1038F00019467868FFF762FD41F288320D21786839
:1039000000F02EF8F861FB6918462037BD4680BDEF
:1039100090B482B000AF78600F4B1B680F4AA2FBD7
:1039200003235B0A41F2883202FB03F423465C1E48
:10393000002B02D14FF0004309E07B685B6B03F082
:103940008003002BF2D07B68C5229A6300231846BF
:103950000837BD4690BC704700000020D34D621070
:1039600090B587B000AFF8600B467A60FB726F4B82
:103970001B686F4AA2FB03235B0A7A6802FB03F40D
:1039800023465C1E002B02D14FF00043C9E0FB68C8
:103990005B6B7B617B6903F04503002BF0D07B6997
:1039A00003F40063002BEBD1FB685B6B03F00403B3
:1039B000002B04D0FB6804229A630423B1E0FB6867
:1039C0005B6B03F00103002B04D0FB6801229A63B8
:1039D0000123A6E0FB68C5229A63F868FFF718FD8B
:1039E00003461A46FB7A934201D0012399E0002155
:1039F000F868FFF71AFD38613A694E4B1340002B07
:103A000001D100238DE03B69002B02DA4FF00073F7
:103A100087E03B6903F08043002B01D0402380E026
:103A20003B6903F00053002B01D0802379E03B6910
:103A300003F08053002B02D04FF4807371E03B6998
:103A400003F00063002B02D04FF4007369E03B6980
:103A500003F08063002B02D04FF4806361E03B6988
:103A600003F08073002B02D04FF4006359E03B69F0
:103A700003F40003002B02D04FF4805351E03B6964
:103A800003F48003002B02D04FF4005349E03B695C
:103A900003F40013002B02D04FF4804341E03B6954
:103AA00003F48013002B02D04FF4004339E03B694C
:103AB00003F48023002B02D04FF4003331E03B6944
:103AC00003F40033002B02D04FF4802329E03B693C
:103AD00003F48033002B02D04FF4002321E03B6934
:103AE00003F40043002B02D04FF4801319E03B692C
:103AF00003F48043002B02D04FF4001311E03B6924
:103B000003F40053002B02D04FF4800309E03B691B
:103B100003F00803002B02D04FF4000301E04FF440
:103B2000803318461C37BD4690BD00BF0000002002
:103B3000D34D621008E0FFFD90B484B000AF786010
:103B40001E4B1B681E4AA2FB03235B0A41F288320C
:103B500002FB03F423465C1E002B02D14FF000430E
:103B600026E07B685B6BFB60FB6803F04503002B82
:103B7000F0D0FB6803F40063002BEBD17B685B6B38
:103B800003F00403002B04D07B6804229A6304230F
:103B90000EE07B685B6B03F00103002B04D07B68B5
:103BA00001229A63012303E07B68C5229A63002304
:103BB00018461037BD4690BC704700BF000000207B
:103BC000D34D621090B484B000AF7860184B1B687E
:103BD000184AA2FB03235B0A41F2883202FB03F47A
:103BE00023465C1E002B02D14FF000431BE07B6894
:103BF0005B6BFB60FB6803F04503002BF0D0FB68B8
:103C000003F40063002BEBD17B685B6B03F00403D0
:103C1000002B04D07B6804229A63042303E07B68B2
:103C2000C5229A63002318461037BD4690BC7047E2
:103C300000000020D34D621090B587B000AFF8604F
:103C40000B467A60FB72344B1B68344AA2FB032399
:103C50005B0A41F2883202FB03F423465C1E002B10
:103C600002D14FF0004352E0FB685B6B7B617B69E4
:103C700003F04503002BF0D07B6903F40063002BB5
:103C8000EBD1FB685B6B03F00403002B04D0FB68F3
:103C900004229A6304233AE0FB685B6B03F00103A0
:103CA000002B04D0FB6801229A6301232FE0F868FF
:103CB000FFF7AEFB03461A46FB7A934201D001237D
:103CC00025E0FB68C5229A630021F868FFF7ADFB89
:103CD00038613B6903F46043002B06D13B691B0C40
:103CE0009AB27B681A80002311E03B6903F4804399
:103CF000002B02D04FF4005309E03B6903F400436A
:103D0000002B02D04FF4805301E04FF4803318466B
:103D10001C37BD4690BD00BF00000020D34D62108F
:103D200090B484B000AF7860214B1B68214AA2FB9D
:103D300003235B0A41F2883202FB03F423465C1E34
:103D4000002B02D14FF000432CE07B685B6BFB60E3
:103D5000FB6803F04503002BF0D0FB6803F400631D
:103D6000002BEBD17B685B6B03F00403002B04D0CA
:103D70007B6804229A63042314E07B685B6B03F086
:103D80000103002B04D07B6801229A63012309E020
:103D90007B685B6B03F04003002B02D07B68402202
:103DA0009A63002318461037BD4690BC704700BF89
:103DB00000000020D34D621080B500AF04490548D3
:103DC00002F09CFD03461A46034B1A7000BF80BDEB
:103DD00078010020447B00087401002080B400AF0B
:103DE00000231846BD465DF8047B704780B582B05D
:103DF00000AF0023FB7100F079F80346012B01D0DE
:103E0000012312E00B48FEF7F7F80346FB71FB793C
:103E1000002B09D14FF400610648FEF7E9FE034686
:103E2000002B01D00123FB71FB7918460837BD46F2
:103E300080BD00BFCC00002080B588B002AFF86024
:103E4000B9607A603B600023FB753B6800937B6838
:103E5000BA68F9680648FEF75FF90346002B01D0FF
:103E60000123FB75FB7D18461837BD4680BD00BF9A
:103E7000CC00002080B588B002AFF860B9607A60ED
:103E80003B600023FB753B6800937B68BA68F96868
:103E90000648FEF73BFB0346002B01D00123FB75D0
:103EA000FB7D18461837BD4680BD00BFCC00002002
:103EB00080B500AF0548FEF717FF0346042B14BF7B
:103EC00001230023DBB2184680BD00BFCC000020D8
:103ED00080B582B000AF786079680348FEF75CFE79
:103EE00000BF0837BD4680BDCC00002080B483B041
:103EF00000AF0123FB71FB79DBB218460C37BD46DE
:103F00005DF8047B7047000080B582B000AF0346C7
:103F1000FB710B4B01221A70FFF7CAFF0346002BFF
:103F200007D1074B1B78DBB223F00103DAB2044B55
:103F30001A70034B1B78DBB218460837BD4680BDAC
:103F40000900002080B582B000AF0346FB710B4B27
:103F500001221A70FFF74AFF0346002B07D1FB79B5
:103F60001846FFF7D1FF03461A46044B1A70034B5D
:103F70001B78DBB218460837BD4680BD090000201B
:103F800080B582B000AF0346FB71FB791846FFF79E
:103F9000BBFF034618460837BD4680BD80B586B0D6
:103FA00000AFB9607A603B600346FB730123FB7589
:103FB0004FF0FF333A687968B868FFF73DFF034672
:103FC000002B07D100BFFFF773FF0346002BFAD188
:103FD0000023FB75FB7D18461837BD4680BD80B5B4
:103FE00086B000AFB9607A603B600346FB73012383
:103FF000FB754FF0FF333A687968B868FFF73AFF0E
:104000000346002B07D100BFFFF752FF0346002BEA
:10401000FAD10023FB75FB7D18461837BD4680BDDD
:1040200080B58CB000AF03463A60FB710B46BB71A4
:10403000012387F82F30254B1B78DBB203F00103F7
:10404000002B01D003233CE0BB79032B34D801A221
:1040500052F823F0654000086D40000885400008D4
:104060009F400008002387F82F3028E007F10C0359
:104070001846FFF72DFF7A6A3B681A60002387F81D
:104080002F301CE007F10C031846FFF721FFBB6A35
:104090009AB23B681A80002387F82F300FE007F1AF
:1040A0000C031846FFF714FFBB6A5A0A3B681A60F4
:1040B000002387F82F3002E0042387F82F3097F889
:1040C0002F3018463037BD4680BD00BF09000020A4
:1040D00080B584B000AF0346FB71FB79084A9B00B2
:1040E00013445B685B68FA7905490A44127A104602
:1040F00098470346FB73FB7B18461037BD4680BDCF
:10410000B800002080B584B000AF0346FB710023E7
:10411000FB73FB790D4AD35C002B11D1FB790B4A61
:104120000121D154FB79094A9B0013445B681B6849
:10413000FA7906490A44127A104698470346FB73F7
:10414000FB7B18461037BD4680BD00BFB80000207D
:1041500090B587B000AFB9607A603B600346FB73EF
:10416000FB7B0A4A9B0013445B689C68FB7B074A05
:104170001344187A3B687A68B968A0470346FB7510
:10418000FB7D18461C37BD4690BD00BFB80000201F
:1041900090B587B000AFB9607A603B600346FB73AF
:1041A000FB7B0A4A9B0013445B68DC68FB7B074A85
:1041B0001344187A3B687A68B968A0470346FB75D0
:1041C000FB7D18461C37BD4690BD00BFB8000020DF
:1041D00080B584B000AF03463A60FB710B46BB71FB
:1041E000FB79094A9B0013445B681B69FA7906490D
:1041F0000A44107AB9793A6898470346FB73FB7B07
:1042000018461037BD4680BDB800002080B485B088
:1042100000AF78607B6801331B78FB81FB891B0250
:104220001AB27B681B781BB213431BB2FB81FB895C
:1042300018461437BD465DF8047B704780B485B0DE
:1042400000AF78607B6803331B78FB60FB681B0260
:104250007A68023212781343FB60FB681B027A68AB
:10426000013212781343FB60FB681B027A681278F4
:104270001343FB60FB6818461437BD465DF8047BAA
:10428000704780B483B000AF78600B467B807B685A
:104290005A1C7A607A88D2B21A707B881B0A7B809B
:1042A0007B685A1C7A607A88D2B21A7000BF0C37C9
:1042B000BD465DF8047B704780B483B000AF786082
:1042C00039607B685A1C7A603A68D2B21A703B68CF
:1042D0001B0A3B607B685A1C7A603A68D2B21A703B
:1042E0003B681B0A3B607B685A1C7A603A68D2B212
:1042F0001A703B681B0A3B607B685A1C7A603A68FC
:10430000D2B21A7000BF0C37BD465DF8047B70470F
:1043100080B487B000AFF860B9607A60FB687B61F9
:10432000BB683B617B68002B0DD03A69531C3B6135
:104330007B69591C796112781A707B68013B7B603C
:104340007B68002BF1D100BF1C37BD465DF8047BB4
:10435000704780B487B000AFF860B9607A60FB68DE
:104360007B617B695A1C7A61BA68D2B21A707B6829
:10437000013B7B607B68002BF3D100BF1C37BD463F
:104380005DF8047B704780B489B000AFF860B96015
:104390007A60FB68FB61BB68BB6100237B61FB69E2
:1043A0005A1CFA611B781946BB695A1CBA611B7802
:1043B000CB1A7B617B68013B7B607B68002B02D062
:1043C0007B69002BEBD07B6918462437BD465DF82E
:1043D000047B704780B483B000AF7860396002E03E
:1043E0007B6801337B607B681B78002B05D07B6882
:1043F0001B781A463B689342F2D17B681B781846BB
:104400000C37BD465DF8047B7047000080B485B072
:1044100000AF786039600023BB60BB68FB6029E0B7
:10442000274AFB681B0113441B68002B1DD0244A3C
:10443000FB681B0113441A687B681B689A4216D1FB
:104440001F4AFB681B01134404331A687B689B688E
:104450009A420CD11A4AFB681B01134408331A68AC
:104460007B685B699A4202D107E00123BB60FB686D
:104470000133FB60FB68012BD2D9FB68022B09D109
:10448000BB68002B02D13B68022B01D1002310E056
:1044900012230EE03B68002B08D1094AFB681B0180
:1044A00013440C331B88B3F5807F01D1102300E047
:1044B000002318461437BD465DF8047B704700BFE3
:1044C0009800002080B483B000AF00237B6002E03E
:1044D0007B6801337B607B68012B06D8094A7B68C7
:1044E0001B0113441B68002BF2D17B68022B14BF05
:1044F00001230023DBB218460C37BD465DF8047B70
:10450000704700BF9800002080B485B000AF78608D
:1045100039600023FB601FE0414AFB681B01134424
:104520001A687B681B689A4213D13D4AFB681B01DD
:10453000134404331A687B689B689A4209D1384A4D
:10454000FB681B01134408331A687B685B699A4255
:1045500006D0FB680133FB60FB68012BDCD900E06F
:1045600000BFFB68022B32D10023FB6002E0FB6836
:104570000133FB60FB68012B06D8294AFB681B014D
:1045800013441B68002BF2D1FB68022B01D10023DE
:1045900040E07B681A682249FB681B010B441A60E3
:1045A0007B689A681E49FB681B010B4404331A6040
:1045B0007B685A691A49FB681B010B4408331A606F
:1045C000174AFB681B0113440C3300221A803B6816
:1045D000002B09D0124AFB681B0113440C331B88C3
:1045E000002B01D0002315E03B68002B08D10C4ABA
:1045F000FB681B0113440C331B8801339AB201E0A2
:104600004FF480720649FB681B010B440C331A807F
:10461000FB68013318461437BD465DF8047B7047CC
:104620009800002080B485B000AF78607B68013BC3
:104630007B607B68012B25D8174A7B681B011344DC
:104640000C331B88FB81FB89B3F5807F01D10023EC
:10465000FB81FB89002B02D0FB89013BFB810E4AC9
:104660007B681B0113440C33FA891A80FB89002BE9
:1046700005D1094A7B681B01134400221A600023FC
:104680007B7301E002237B737B7B18461437BD46A6
:104690005DF8047B704700BF9800002080B485B0AF
:1046A00000AF78600023FB6010E00D4AFB681B013F
:1046B00013441B687A689A4205D1094AFB681B01BA
:1046C000134400221A60FB680133FB60FB68012B76
:1046D000EBD900BF1437BD465DF8047B704700BFBF
:1046E0009800002080B586B000AF78600023FB738F
:1046F0007B68DB78002B34D07B681B6B7B617B682D
:1047000058787B6803F1340101237A69FFF740FD93
:104710000346002B02D00123FB7322E07B680022BA
:10472000DA707B685B6A7A69D21A7B68DB699A42C5
:1047300017D27B689B783B6110E07B68DB697A6904
:1047400013447B617B6858787B6803F13401012353
:104750007A69FFF71DFD3B69013B3B613B69012B1A
:10476000EBD8FB7B18461837BD4680BD80B584B0BA
:1047700000AF786039600023FB737B681B6B3A687D
:104780009A421BD07868FFF7ADFF0346FB73FB7BB3
:10479000002B13D17B6858787B6803F13401012327
:1047A0003A68FFF7D5FC0346002B04D04FF0FF33E7
:1047B0003B600123FB737B683A681A63FB7B1846F6
:1047C0001037BD4680BD000080B584B000AF786072
:1047D0007868FFF787FF0346FB73FB7B002B59D1FB
:1047E0007B681B78032B49D17B681B79012B45D152
:1047F0007B6803F134007B689B891A460021FFF730
:10480000A8FD7B68343303F5FF734AF6552118463B
:10481000FFF737FD7B68343321491846FFF74CFD1D
:104820007B68343303F5F2731E491846FFF744FDE5
:104830007B68343303F5F4727B685B691946104674
:10484000FFF73AFD7B68343303F5F6727B681B692A
:1048500019461046FFF730FD7B681B6A5A1C7B68BF
:104860001A637B6858787B6803F134017B681A6BA4
:104870000123FFF78DFC7B6800221A717B685B784F
:10488000002200211846FFF7A3FC0346002B01D0AD
:104890000123FB73FB7B18461037BD4680BD00BF6C
:1048A000525261417272416180B483B000AF78604E
:1048B00039603B68023B3B607B689B69023B3A681E
:1048C0009A4201D3002308E07B685B891A463B6863
:1048D00003FB02F27B68DB6A134418460C37BD46C3
:1048E0005DF8047B704780B586B000AF78603960B2
:1048F0007B681B683B613B68012B04D93B699B6962
:104900003A689A4202D301237B61B7E04FF0FF334C
:104910007B613B691B78022B5AD0032B7DD0012B86
:1049200040F0A2803B68FB60FB685B08FA681344B8
:10493000FB603B695A6A3B699B891946FB68B3FB7C
:10494000F1F3134419463869FFF710FF0346002BB3
:1049500040F08D80FB685A1CFA603A699289B3FB7B
:10496000F2F102FB01F29B1A3A69134493F83430D6
:10497000BB603B695A6A3B699B891946FB68B3FB7C
:10498000F1F3134419463869FFF7F0FE0346002B94
:104990006FD13B699B891A46FB68B3FBF2F102FBBE
:1049A00001F29B1A3A69134493F834301B021A46F9
:1049B000BB681343BB603B6803F00103002B02D0CC
:1049C000BB681B0902E0BB68C3F30B037B6155E0C6
:1049D0003B695A6A3B699B895B089BB219463B68F5
:1049E000B3FBF1F3134419463869FFF7BFFE0346E2
:1049F000002B40D13B6903F134013B685B003A690D
:104A00009289B3FBF2F002FB00F29B1A0B441846AA
:104A1000FFF7FCFB03467B6130E03B695A6A3B6968
:104A20009B899B089BB219463B68B3FBF1F3134487
:104A300019463869FFF79AFE0346002B1DD13B69E2
:104A400003F134013B689B003A699289B3FBF2F0B1
:104A500002FB00F29B1A0B441846FFF7EFFB0346DC
:104A600023F070437B6109E001237B6106E000BF16
:104A700004E000BF02E000BF00E000BF7B69184611
:104A80001837BD4680BD90B589B000AFF860B960F9
:104A90007A600223FB77BB68012B40F20681FB683A
:104AA0009B69BA689A4280F00081FB681B78022BF0
:104AB00000F08880032B00F0B080012B40F0F580DF
:104AC000BB68BB61BB695B08BA691344BB61FB6827
:104AD0005A6AFB689B891946BB69B3FBF1F313441F
:104AE0001946F868FFF742FE0346FB77FB7F002B71
:104AF00040F0D480FB6803F13401BB695A1CBA61F1
:104B0000FA689289B3FBF2F002FB00F29B1A0B44A5
:104B10007B61BB6803F00103002B0DD07B691B7820
:104B20005BB203F00F035AB27B68DBB21B015BB2CE
:104B300013435BB2DBB201E07B68DBB27A691370CE
:104B4000FB680122DA70FB685A6AFB689B89194688
:104B5000BB69B3FBF1F313441946F868FFF706FE8F
:104B60000346FB77FB7F002B40F09A80FB6803F144
:104B70003401FB689B891A46BB69B3FBF2F002FB68
:104B800000F29B1A0B447B61BB6803F00103002B0E
:104B900003D07B681B09DBB20EE07B691B785BB23C
:104BA00023F00F035AB27B681B0A5BB203F00F03BA
:104BB0005BB213435BB2DBB27A691370FB6801220C
:104BC000DA7072E0FB685A6AFB689B895B089BB2EB
:104BD0001946BB68B3FBF1F313441946F868FFF7B5
:104BE000C5FD0346FB77FB7F002B5BD1FB6803F120
:104BF0003401BB685B00FA689289B3FBF2F002FBF8
:104C000000F29B1A0B447A6892B211461846FFF7DD
:104C100038FBFB680122DA7047E0FB685A6AFB68E0
:104C20009B899B089BB21946BB68B3FBF1F3134405
:104C30001946F868FFF79AFD0346FB77FB7F002BC8
:104C400032D17B6823F07044FB6803F13401BB6808
:104C50009B00FA689289B3FBF2F002FB00F29B1A08
:104C60000B441846FFF7EAFA034603F07043234368
:104C70007B60FB6803F13401BB689B00FA68928992
:104C8000B3FBF2F002FB00F29B1A0B447968184662
:104C9000FFF712FBFB680122DA7006E000BF04E0B8
:104CA00000BF02E000BF00E000BFFB7F18462437D2
:104CB000BD4690BD80B588B000AFF860B9607A603D
:104CC0000023FB77FB681B68BB61BB68012B04D921
:104CD000BB699B69BA689A4201D302234BE07B68A7
:104CE000002B0CD04FF0FF327968B869FFF7CBFE8C
:104CF0000346FB77FB7F002B01D0FB7F3BE0B968CD
:104D0000F868FFF7F0FD78617B69002B31D07B6993
:104D1000012B01D102232EE07B69B3F1FF3F01D1CA
:104D2000012328E00022B968B869FFF7ACFE03460A
:104D3000FB77FB7F002B01D0FB7F1CE0BB695A692E
:104D4000BB699B69023B9A420BD2BB695B695A1CE7
:104D5000BB695A61BB691B7943F00103DAB2BB69D5
:104D60001A717B69BB60BB699B69BA689A42C6D3FA
:104D700000E000BF002318462037BD4680BD80B547
:104D800088B000AF786039607B681B683B613B6826
:104D9000002B0DD13B691B69BB61BB69002B04D0A3
:104DA0003B699B69BA699A421BD30123BB6118E036
:104DB00039687868FFF797FDF860FB68012B01D828
:104DC000012370E0FB68B3F1FF3F01D1FB686AE0AB
:104DD0003B699B69FA689A4201D2FB6863E03B68D1
:104DE000BB61BB69FB61FB690133FB613B699B698B
:104DF000FA699A4207D30223FB61FA69BB699A42B6
:104E000001D900234FE0F9697868FFF76CFDF8607D
:104E1000FB68002B0ED0FB68012B03D0FB68B3F1BD
:104E2000FF3F01D1FB683EE0FA69BB699A42DAD1E3
:104E3000002338E000BF4FF0FF32F9693869FFF70F
:104E400022FE0346FB75FB7D002B09D13B68002B3E
:104E500006D0FA6939683869FFF715FE0346FB7515
:104E6000FB7D002B16D13B69FA691A613B695A69CF
:104E70003B699B69023B9A4204D83B695B695A1EB5
:104E80003B695A613B691B7943F00103DAB23B6924
:104E90001A7107E0FB7D012B02D14FF0FF3300E0D8
:104EA0000123FB61FB6918462037BD4680BD80B4F5
:104EB00087B000AF786039607B681B68FB607B68F7
:104EC000DB6A04333B61FB689B891A463B68B3FB92
:104ED000F2F3FA685289B3FBF2F37B613B691A1D66
:104EE0003A611B68BB60BB68002B01D1002310E056
:104EF0007A69BB689A4207D37A69BB68D31A7B6127
:104F00003B6904333B61E9E700BF3B691A687B6991
:104F1000134418461C37BD465DF8047B704780B5C6
:104F200086B000AF786039607B681B683B613B6886
:104F3000B3F5001F04D23B6803F01F03002B01D020
:104F4000022371E07B683A685A617B689B687B61E9
:104F50007B69002B06D13B691B78022B02D93B6988
:104F60009B6A7B617B69002B0CD13B685B093A69CA
:104F70001289934201D3022356E03B699A6A7B6807
:104F8000DA612DE03B695B891A463B699B8903FB2B
:104F900002F3FB6019E07B6879691846FFF7A3FC10
:104FA00078617B69B3F1FF3F01D101233CE07B696C
:104FB000012B04D93B699B697A699A4201D3022388
:104FC00032E03A68FB68D31A3B603A68FB689A4261
:104FD000E1D279693869FFF767FC02467B68DA61DC
:104FE0007B687A699A617B68DB69002B01D10223B7
:104FF0001AE07B68DA693B699B8919463B68B3FB19
:10500000F1F31A447B68DA613B6903F134013B69CF
:105010009B891A463B68B3FBF2F002FB00F29B1A35
:10502000CA187B681A62002318461837BD4680BD2F
:1050300080B586B000AF786039607B681B68FB6024
:105040007B685B692033BB607B68DB69002B03D026
:10505000BB68B3F5001F01D30423BBE0FB689B8949
:105060001A46BB68B3FBF2F102FB01F29B1A002B5C
:1050700040F09D807B68DB695A1C7B68DA617B6845
:105080009B69002B0BD1BB685B09FA6812899342BC
:10509000C0F08D807B680022DA6104239AE0FB680F
:1050A0009B891A46BB68B3FBF2F3FA685289013A4E
:1050B0001340002B7BD17A687B689B6919461046A8
:1050C000FFF711FC78617B69012B01D8022381E095
:1050D0007B69B3F1FF3F01D101237BE0FB689B6952
:1050E0007A699A4259D33B68002B04D17B6800222D
:1050F000DA6104236EE07A687B689B691946104682
:10510000FFF73DFE78617B69002B01D1072361E049
:105110007B69012B01D102235CE07B69B3F1FF3F86
:1051200001D1012356E0F868FFF7DCFA0346002BB3
:1051300001D001234EE0FB6803F13400FB689B893A
:105140001A460021FFF705F900233B617969F868E9
:10515000FFF7AAFB0246FB681A6312E0FB68012214
:10516000DA70F868FFF7BEFA0346002B01D001237E
:1051700030E03B6901333B61FB681B6B5A1CFB68E9
:105180001A63FB685B891A463B699342E6D3FB6866
:105190001A6B3B69D21AFB681A637B687A699A6159
:1051A0007969F868FFF780FB02467B68DA617B6803
:1051B000BA685A61FB6803F13401FB689B891A469F
:1051C000BB68B3FBF2F002FB00F29B1ACA187B68C3
:1051D0001A62002318461837BD4680BD80B586B0D8
:1051E00000AF786039607B681B68FB6000217868DD
:1051F000FFF795FE0346FB75FB7D002B2BD10023AB
:105200003B617B68DB691946F868FFF7AFFA034634
:10521000FB75FB7D002B1DD17B681B6A1B78E52B82
:1052200004D07B681B6A1B78002B07D13B690133D4
:105230003B613A693B689A4202D10CE000233B6132
:1052400001217868FFF7F4FE0346FB75FB7D002B18
:10525000D7D000E000BFFB7D042B01D10723FB75F5
:10526000FB7D18461837BD4680BD80B584B000AFC1
:10527000786039603B681A331846FEF7C7FF03466B
:10528000FB607B681B78032B09D13B6814331846FD
:10529000FEF7BCFF03461B04FA681343FB60FB6880
:1052A00018461037BD4680BD80B584B000AFF860A9
:1052B000B9607A60BB681A337A6892B211461846B0
:1052C000FEF7DFFFFB681B78032B09D1BB6803F1F6
:1052D00014027B681B0C9BB219461046FEF7D1FFE7
:1052E00000BF1037BD4680BD80B586B000AF786086
:1052F00039600423FB757B681B683B613CE07B687D
:10530000DB6919463869FFF731FA0346FB75FB7D07
:10531000002B36D17B681B6A1B78FB73FB7B002B51
:1053200002D10423FB7531E07B681B6A0B331B78C9
:1053300003F03F03BB737B68BA7B9A71FB7BE52B61
:1053400011D0FB7B2E2B0ED0BB7B0F2B0BD0BB7B4E
:1053500023F02003082B0CBF01230023DBB21A46E5
:105360003B6893420FD000217868FFF761FE034647
:10537000FB75FB7D002B08D17B68DB69002BBED160
:1053800004E000BF02E000BF00E000BFFB7D002B97
:1053900002D07B680022DA61FB7D18461837BD46D3
:1053A00080BD80B586B000AF78607B681B683B61CC
:1053B00000217868FFF7B3FD0346FB75FB7D002BEA
:1053C00001D0FB7D3EE07B68DB6919463869FFF759
:1053D000CDF90346FB75FB7D002B2FD17B681B6A43
:1053E0001B78FB73FB7B002B02D10423FB7528E0A9
:1053F0007B681B6A0B331B7803F03F03DAB27B68D0
:105400009A717B681B6A0B331B7803F00803002B2F
:105410000AD17B68186A7B6824330B221946FEF791
:10542000B2FF0346002B0BD000217868FFF700FE87
:105430000346FB75FB7D002BC5D002E000BF00E0FA
:1054400000BFFB7D18461837BD4680BD80B584B0CF
:1054500000AF78607B681B68BB6001217868FFF74C
:10546000BDFE0346FB73FB7B002B1CD17B68DB6915
:105470001946B868FFF77AF90346FB73FB7B002BEC
:1054800011D17B681B6A202200211846FEF761FFBC
:105490007B68186A7B6824330B221946FEF738FFB5
:1054A000BB680122DA70FB7B18461037BD4680BD11
:1054B00080B584B000AF78607B681B68FB607B6858
:1054C000DB691946F868FFF751F90346FB72FB7A6E
:1054D000002B06D17B681B6AE5221A70FB6801224B
:1054E000DA70FB7A18461037BD4680BD80B586B0AD
:1054F00000AF786039603B6800225A727B68DB69D4
:10550000002B4ED000233B613B697B6121E07B682F
:105510001A6A7B69591C796113441B78FB73FB7B06
:10552000202B00D115E0FB7B052B01D1E523FB737C
:105530007B69092B06D13B695A1C3A613A681344CE
:105540002E225A723B695A1C3A613A681344FA7B1C
:105550005A727B690A2BDAD93A683B6913440933DA
:1055600000221A707B681B6ADA7A3B681A727B68C1
:105570001B6A1C331846FEF761FE02463B681A6040
:105580007B681B6A16331846FEF758FEB860BB6886
:105590009AB23B68DA80BB681B0C9AB23B689A806F
:1055A00000E000BF1837BD4680BD000080B588B060
:1055B00000AF786039603B681B68FB607B68243310
:1055C000BB600B222021B868FEF7C3FE00233B61BD
:1055D0003B697B610823BB617B695A1C7A61FA686D
:1055E00013441B78FB77FB7F202B4ED9FB7F2F2B9F
:1055F00006D0FB7F5C2B10D102E07B6901337B611D
:10560000FA687B6913441B782F2BF6D0FA687B6904
:1056100013441B785C2BF0D038E0FB7F2E2B03D09B
:105620003A69BB699A420CD3BB690B2B02D0FB7F52
:105630002E2B01D0062344E008233B610B23BB61E2
:1056400022E097F91F30002B04DAFB7F803B1F4AD2
:10565000D35CFB77FB7F19461D48FEF7BBFE034674
:10566000002B01D006232CE0FB7F602B05D9FB7FAC
:105670007A2B02D8FB7F203BFB773B695A1C3A61AF
:10568000BA681344FA7F1A70A6E700BFFA687B690C
:105690001A443B681A603B69002B01D1062310E0D5
:1056A000BB681B78E52B02D1BB6805221A70FB7F13
:1056B000202B01D8042200E00022BB680B331A70B3
:1056C000002318462037BD4680BD00BF587B000828
:1056D000887A000880B586B000AF786039607B6852
:1056E0003B613B691B68FB6002E03B6801333B6048
:1056F0003B681B782F2BF8D03B681B785C2BF4D0D1
:105700003B6900229A603B681B781F2B0AD87B6894
:10571000802283F82F2000217868FFF700FC0346E1
:10572000FB7548E03B4619467868FFF73FFF0346A4
:10573000FB75FB7D002B39D17868FFF732FE0346FD
:10574000FB757B6893F82F30FB72FB7D002B0AD032
:10575000FB7D042B2CD1FB7A03F00403002B27D113
:105760000523FB7524E0FB7A03F00403002B21D111
:105770003B699B7903F01003002B02D10523FB75D5
:1057800019E0FB6803F134017B685B69FA68928970
:10579000B3FBF2F002FB00F29B1A0B441946F868C7
:1057A000FFF763FD02463B699A60BBE700BF02E07A
:1057B00000BF00E000BFFB7D18461837BD4680BD26
:1057C00080B487B000AF78604FF0FF333B617B68F7
:1057D0001B68002B31D07B681B687B6102E07B6912
:1057E00001337B617B691B78202B03D97B691B7894
:1057F0003A2BF4D17B691B783A2B1CD17B681B6850
:10580000FB60FB685A1CFA601B78303BBB60BB68CE
:10581000092B0ED8FA687B699A420AD1BB68002B23
:1058200007D1BB683B617B6901337B617B687A6927
:105830001A603B6902E000233B613B6918461C3754
:10584000BD465DF8047B704780B582B000AF7860DC
:1058500039607B680022DA707B684FF0FF321A6390
:1058600039687868FEF782FF0346002B01D00423D5
:1058700038E07B68343303F5FF731846FEF7C6FC47
:1058800003461A464AF655239A4201D0032329E0DB
:105890007B6893F83430E92B09D07B6893F8343077
:1058A000EB2B1ED17B6893F83630902B19D17B6897
:1058B000343336331846FEF7C1FC034623F07F43EA
:1058C0000A4A934201D100230CE07B6834335233FF
:1058D0001846FEF7B3FC0246054B9A4201D100235D
:1058E00000E0022318460837BD4680BD46415400FB
:1058F0004641543380B596B000AFF860B9601346A6
:10590000FB71BB6800221A60F868FFF759FFF86363
:10591000FB6B002B01DA0B2365E2B04AFB6B52F8FC
:105920002330BB63BB6B002B01D10C235BE2BB6854
:10593000BA6B1A60FB7923F00103FB71BB6B1B7818
:10594000002B1AD0BB6B5B781846FEF7C1FB0346F1
:1059500087F8373097F8373003F00103002B0CD16C
:10596000FB79002B07D097F8373003F00403002BA6
:1059700001D00A2337E2002335E2BB6B00221A7004
:10598000FB6BDAB2BB6B5A70BB6B5B781846FEF7E9
:10599000B9FB034687F8373097F8373003F0010337
:1059A000002B01D003231EE2FB79002B07D097F8D0
:1059B000373003F00403002B01D00A2313E2BB6B42
:1059C0005878BB6B0C331A460221FEF701FC0346E4
:1059D000002B01D0012306E2BB6B9B89B3F5805FEE
:1059E0000DD8BB6B9B89B3F5007F08D3BB6B9B893C
:1059F0001A46BB6B9B89013B1340002B01D001234E
:105A0000F1E100233B65396DB86BFFF71DFF0346DD
:105A100087F8573097F85730022B4BD100233B645F
:105A20001FE0BB6B03F134023B6C1B0103F5DF731A
:105A300013443B633B6B04331B78002B06D03B6B5A
:105A400008331846FEF7FAFB024600E000223B6CE2
:105A50009B0007F158010B4443F8442C3B6C013385
:105A60003B643B6C032BDCD900233B643B6C002B79
:105A700002D03B6C013B3B643B6C9B0007F158023E
:105A8000134453F8443C3B653B6D002B05D0396D06
:105A9000B86BFFF7D9FE034600E0032387F85730C1
:105AA00097F85730012B05D93B6C01333B643B6CB5
:105AB000032BE1D997F85730042B01D1012392E150
:105AC00097F85730012B01D90D238CE1BB6B343390
:105AD0000B331846FEF79AFB03461A46BB6B9B89AD
